{
  "contractName": "Securescan",
  "abi": [
    {
      "anonymous": false,
      "inputs": [
        {
          "indexed": false,
          "internalType": "bool",
          "name": "istrue",
          "type": "bool"
        }
      ],
      "name": "storeData1",
      "type": "event"
    },
    {
      "constant": true,
      "inputs": [
        {
          "internalType": "string",
          "name": "",
          "type": "string"
        }
      ],
      "name": "identifier",
      "outputs": [
        {
          "internalType": "bool",
          "name": "istrue",
          "type": "bool"
        },
        {
          "internalType": "uint256",
          "name": "idp",
          "type": "uint256"
        }
      ],
      "payable": false,
      "stateMutability": "view",
      "type": "function"
    },
    {
      "constant": true,
      "inputs": [],
      "name": "name",
      "outputs": [
        {
          "internalType": "string",
          "name": "",
          "type": "string"
        }
      ],
      "payable": false,
      "stateMutability": "view",
      "type": "function"
    },
    {
      "constant": false,
      "inputs": [
        {
          "internalType": "string",
          "name": "_Producthase",
          "type": "string"
        }
      ],
      "name": "storeData",
      "outputs": [],
      "payable": false,
      "stateMutability": "nonpayable",
      "type": "function"
    },
    {
      "constant": false,
      "inputs": [
        {
          "internalType": "string",
          "name": "_Producthase",
          "type": "string"
        }
      ],
      "name": "indentifayProduct",
      "outputs": [],
      "payable": false,
      "stateMutability": "nonpayable",
      "type": "function"
    }
  ],
  "bytecode": "0x60806040526040518060400160405280600b81526020017f536563757265205363616e0000000000000000000000000000000000000000008152506000908051906020019061004f929190610062565b5034801561005c57600080fd5b50610107565b828054600181600116156101000203166002900490600052602060002090601f016020900481019282601f106100a357805160ff19168380011785556100d1565b828001600101855582156100d1579182015b828111156100d05782518255916020019190600101906100b5565b5b5090506100de91906100e2565b5090565b61010491905b808211156101005760008160009055506001016100e8565b5090565b90565b61065c806101166000396000f3fe608060405234801561001057600080fd5b506004361061004c5760003560e01c806306fdde0314610051578063496ca955146100d4578063611f87bc1461018f578063fb218f5f14610269575b600080fd5b610059610324565b6040518080602001828103825283818151815260200191508051906020019080838360005b8381101561009957808201518184015260208101905061007e565b50505050905090810190601f1680156100c65780820380516001836020036101000a031916815260200191505b509250505060405180910390f35b61018d600480360360208110156100ea57600080fd5b810190808035906020019064010000000081111561010757600080fd5b82018360208201111561011957600080fd5b8035906020019184600183028401116401000000008311171561013b57600080fd5b91908080601f016020809104026020016040519081016040528093929190818152602001838380828437600081840152601f19601f8201169050808301925050505050505091929192905050506103c2565b005b610248600480360360208110156101a557600080fd5b81019080803590602001906401000000008111156101c257600080fd5b8201836020820111156101d457600080fd5b803590602001918460018302840111640100000000831117156101f657600080fd5b91908080601f016020809104026020016040519081016040528093929190818152602001838380828437600081840152601f19601f820116905080830192505050505050509192919290505050610458565b60405180831515151581526020018281526020019250505060405180910390f35b6103226004803603602081101561027f57600080fd5b810190808035906020019064010000000081111561029c57600080fd5b8201836020820111156102ae57600080fd5b803590602001918460018302840111640100000000831117156102d057600080fd5b91908080601f016020809104026020016040519081016040528093929190818152602001838380828437600081840152601f19601f82011690508083019250505050505050919291929050505061049f565b005b60008054600181600116156101000203166002900480601f0160208091040260200160405190810160405280929190818152602001828054600181600116156101000203166002900480156103ba5780601f1061038f576101008083540402835291602001916103ba565b820191906000526020600020905b81548152906001019060200180831161039d57829003601f168201915b505050505081565b60008151116103d057600080fd5b60006001826040518082805190602001908083835b6020831061040857805182526020820191506020810190506020830392506103e5565b6001836020036101000a038019825116818451168082178552505050505050905001915050908152602001604051809103902060000160006101000a81548160ff02191690831515021790555050565b6001818051602081018201805184825260208301602085012081835280955050505050506000915090508060000160009054906101000a900460ff16908060010154905082565b60008151116104ad57600080fd5b60006001826040518082805190602001908083835b602083106104e557805182526020820191506020810190506020830392506104c2565b6001836020036101000a0380198251168184511680821785525050505050509050019150509081526020016040518091039020600101541461052657600080fd5b600180826040518082805190602001908083835b6020831061055d578051825260208201915060208101905060208303925061053a565b6001836020036101000a038019825116818451168082178552505050505050905001915050908152602001604051809103902060000160006101000a81548160ff021916908315150217905550600180826040518082805190602001908083835b602083106105e157805182526020820191506020810190506020830392506105be565b6001836020036101000a0380198251168184511680821785525050505050509050019150509081526020016040518091039020600101600082825401925050819055505056fea265627a7a723158209abceb4e22792e5c736b7aa93a125bde40947230c94d5446291129ba277e3d1c64736f6c63430005100032",
  "source": "pragma solidity >=0.5.0 <0.6.0;\r\n\r\ncontract Securescan {\r\n    string public name = \"Secure Scan\";\r\n    //this will call whenever storeData will called\r\nevent storeData1(bool istrue);\r\n\r\n// this the data structure that we used for verifying over product \r\n\r\n    struct id {\r\n        bool istrue;\r\n        uint256 idp;\r\n    }\r\n// this mapping will store the data of product that it is real or feak \r\n/**\r\nit will store k256 hase  that is generate by the product detiles\r\nsuch as product name , product id and some other number as well\r\n\r\n */\r\n\r\n    mapping(string => id) public identifier;\r\n\r\n /**\r\n is called when you create a product \r\n and store an 256 hase  \r\n  */\r\n\r\n    function storeData(string memory _Producthase) public {\r\n        /**\r\n        @dev checking if someone try to scan an empty Qr Code so id will deny to access\r\n\r\n         */\r\n        require(bytes(_Producthase).length > 0);\r\n        /**checking for the id of the prodcut to duplication means at a time no can*/\r\n        require(identifier[_Producthase].idp == 0);\r\n        /** this will show that product is real */\r\n            identifier[_Producthase].istrue = true;\r\n            identifier[_Producthase].idp +=1;\r\n  \r\n    }\r\n\r\n    function indentifayProduct(string memory _Producthase) public {\r\n\r\n        require(bytes(_Producthase).length > 0);\r\n        /**after checking this will make that hash false so that no one can copy it and use it for other proudct as well */\r\n        identifier[_Producthase].istrue = false;\r\n      \r\n    }\r\n}\r\n",
  "sourcePath": "C:/Users/Akhilesh Goswami/Desktop/Daap/scure_sacn/src/contracts/Securescan.sol",
  "compiler": {
    "name": "solc",
    "version": "0.5.16+commit.9c3226ce.Emscripten.clang"
  },
  "schemaVersion": "3.4.1",
  "updatedAt": "2021-06-30T07:03:58.054Z",
  "networkType": "ethereum",
  "devdoc": {
    "methods": {}
  },
  "userdoc": {
    "methods": {
      "storeData(string)": {
        "notice": "is called when you create a product  and store an 256 hase  "
      }
    }
  }
}